:10000000C2B5C2B2C2B4C297C2B3C29579FA31E7DF
:10001000D9FC7D0075813090043A7522007521FF6E
:100020009179B4AA02801C7C01752E1E752D19755C
:100030002C0875290875283275272875260575231B
:1000400005914531638C08D201BC00167F007E000B
:10005000318831557562FF911931477565FF9119E6
:1000600080E7BC013AAF2EAE2A3121318891191FA9
:100070001EBE00F7AE293155318891191F1EBE00F2
:10008000F7AF2DAE2B3134318891191F1EBF00F709
:10009000AF2C3147318891191F1EBF00F780C3BCB8
:1000A000023AAF28AE243121318891191F1EBE00BB
:1000B000F7AE233155318891191F1EBE00F7AF27C7
:1000C000AE253134318891191F1EBF00F7AF26319C
:1000D00047318891191F1EBF00F780C3BC03407FC2
:1000E000007E003121BC0337318891192093F6310D
:1000F00055318891199119911991197F007E00311C
:1001000034BC031B318891192093F6314731889113
:100110001991199119911991197F007E0080BD01E3
:100120004975626F7565B7C2B3C2B4D2B5C2B2C207
:0C01300097D295227562B775656FC2B555
:10013C00C2B4D2B3C295C297D2B2227562DFC2B535
:10014C00C2B3D2B4C297C295227565DFC2B2C29552
:10015C00D297C2B4C2B322C0E0E52D252CF52B25D5
:10016C002EC3952BC39529F52AE5272526F525259C
:10017C0028C39525C39523F524D0E022C0E0EF7564
:10018C00F00A8493F560E5F093F561EE75F00A845E
:10019C0093F563E5F093F564E52275F00A8493F525
:1001AC0067E5F093F566E50893F569D0E02285677D
:1001BC0080C2A131E7D2A1856680A2029280C2A240
:1001CC0031E7D2A2852180C2A331E7D2A385698011
:1001DC00A2019280C2A031E7D2A022C000C0017956
:1001EC000578FAD8FED9FAD001D00022C0E0300050
:1001FC001B209206C20051DE801F209106C20051C6
:10020C00288016209013C2007194800D30920A3011
:10021C009107309004D2003188D0E022C0E0BD01BB
:10022C000A1CBCFF027C038C0841DBBD0226BC010E
:10023C000F152EE52EB40403752E5A852E22801030
:10024C00BC020D1528E528B4040375285A8528220C
:10025C003163807BBD0326BC010F152DE52DB40445
:01026C00038E
:10026D00752D5A852D228010BC020D1527E527B45A
:10027D00040375275A85272231638052BD0426BC9D
:10028D00010F152CE52CB40003752C0F852C228045
:10029D0010BC020D1526E526B4000375260F852624
:1002AD002231638029BD0526BC010F1529E529B42E
:1002BD00000375290F85292280E7BC020D1523E562
:1002CD0023B4000375230F85232231638000D0E012
:1002DD0022C0E0BD010A0CBC04027C008C086191B7
:1002ED00BD0226BC010F052EE52EB45B03752E0550
:1002FD00852E228010BC020D0528E528B45B037500
:10030D0028058528223163807BBD0326BC010F059E
:10031D002DE52DB45B03752D05852D228010BC02B6
:10032D000D0527E527B45B03752705852722316366
:10033D008052BD0426BC010F052CE52CB4100375AD
:10034D002C01852C228010BC020D0526E526B4104B
:10035D000375260185262231638029BD0526BC0142
:10036D000F0529E529B4100375290185292280E798
:10037D00BC020D0523E523B410037523018523224B
:10038D0031638000D0E0220DBD0106C2018C0880D2
:10039D007ABD021275217F750801BC0103852E22DD
:1003AD00BC0203852822BD030F7521BFBC01038547
:1003BD002D22BC0203852722BD040F7521DFBC0150
:1003CD0003852C22BC0203852622BD050F7508026C
:1003DD00BC0103852922BC0203852322D201BD065F
:0103ED000C03
:1003EE007522007521FF7D008C089145BC000CBD67
:1003FE0002097521FF7D008C089145BC030CBD02DE
:10040E00097521FF7D008C08914522C00078147576
:10041E008901758C40758A98D28C31F831BA308D3D
:10042E00F9C28CC28DD8EBB202D00022039F250DEB
:10043E009949411E0109FF91B574A091DD74009197
:10044E00DDEC91DDE52E91DDE52D91DDE52C91DDE7
:10045E00E52991DDE52891DDE52791DDE52691DDA4
:10046E00E52391DD74AA91DD91BF2291B574A0911F
:10047E00DD740091DD91B574A191DDC20791F0FCA0
:10048E0091F0F52E91F0F52D91F0F52C91F0F529D6
:10049E0091F0F52891F0F52791F0F52691F0F523DE
:1004AE00D20791F091BF22D2B7D2B600C2B7C2B670
:1004BE0022C2B7D2B600D2B722D2B7D2B600A2B7F6
:1004CE009207C2B622C2B7D2B600C2B6D2B722C007
:1004DE000078083392B7D2B600C2B6D8F691C7D01C
:1004EE000022C0007808D2B6A2B7C2B633D8F72021
:0B04FE00070491D3800291C7D00022B8
:00000001FF
