:10000000C2B5C2B2C2B4C2B1C2B3C2B07D007581C2
:100010003090042E7522007521FF916DB4AA0280E4
:100020001C7C01752E1E752D19752C0875290875F7
:1000300028327527287526057523059139315D8C81
:1000400008D201BC00167F007E003182314F7562FC
:10005000FF910F31417565FF910F80E7BC013AAF09
:100060002EAE2A311B3182910F1F1EBE00F7AE2922
:10007000314F3182910F1F1EBE00F7AF2DAE2B31D5
:100080002E3182910F1F1EBF00F7AF2C31413182FC
:10009000910F1F1EBF00F780C3BC023AAF28AE24E9
:1000A000311B3182910F1F1EBE00F7AE23314F313D
:1000B00082910F1F1EBE00F7AF27AE25312E318271
:1000C000910F1F1EBF00F7AF2631413182910F1FE4
:1000D0001EBF00F780C3BC03407F007E00311BBC05
:1000E00003373182910F2093F6314F3182910F9176
:1000F0000F910F910F7F007E00312EBC031B3182C8
:10010000910F2093F631413182910F910F910F9110
:100110000F910F7F007E0080BD014375626F756592
:10012000B7C2B3C2B4D2B5C2B2C2B1D2B022756244
:0C013000B775656FC2B5C2B4D2B3C2B0DF
:10013C00C2B1D2B2227562DFC2B5C2B3D2B4C2B1FF
:10014C00C2B0227565DFC2B2C2B0D2B1C2B4C2B302
:10015C0022C0E0E52D252CF52B252EC3952BC39520
:10016C0029F52AE5272526F5252528C39525C395A8
:10017C0023F524D0E022C0E0EF75F00A8493F560FB
:10018C00E5F093F561EE75F00A8493F563E5F09371
:10019C00F564E52275F00A8493F567E5F093F5664E
:1001AC00E50893F569D0E022856780C2A131DDD2E4
:1001BC00A1856680C2A231DDD2A2852180C2A33185
:1001CC00DDD2A3856980A2019280C2A031DDD2A0CC
:1001DC0022C000C001790578FAD8FED9FAD001D036
:1001EC000022C0E030001B209206C20051D4801FB8
:1001FC00209106C200511E8016209013C200718AF5
:10020C00800D30920A309107309004D2003182D0A8
:10021C00E022C0E0BD010A1CBCFF027C038C08413B
:10022C00D1BD0226BC010F152EE52EB40403752E8C
:10023C005A852E228010BC020D1528E528B4040323
:10024C0075285A852822315D807BBD0326BC010FA1
:10025C00152DE52DB40403752D5A852D228010BC67
:04026C00020D152743
:10027000E527B4040375275A852722315D8052BDD6
:100280000426BC010F152CE52CB40003752C0F853A
:100290002C228010BC020D1526E526B4000375261D
:1002A0000F852622315D8029BD0526BC010F152949
:1002B000E529B4000375290F85292280E7BC020DCA
:1002C0001523E523B4000375230F852322315D80B8
:1002D00000D0E022C0E0BD010A0CBC04027C008C0E
:1002E000086187BD0226BC010F052EE52EB45B0315
:1002F000752E05852E228010BC020D0528E528B438
:100300005B03752805852822315D807BBD0326BCF3
:10031000010F052DE52DB45B03752D05852D22807C
:1003200010BC020D0527E527B45B0375270585275B
:1003300022315D8052BD0426BC010F052CE52CB492
:100340001003752C01852C228010BC020D0526E5BA
:1003500026B41003752601852622315D8029BD054E
:1003600026BC010F0529E529B4100375290185294B
:100370002280E7BC020D0523E523B4100375230199
:10038000852322315D8000D0E0220DBD0106C2012F
:100390008C08807ABD021275217F750801BC0103AB
:1003A000852E22BC0203852822BD030F7521BFBC08
:1003B0000103852D22BC0203852722BD040F752170
:1003C000DFBC0103852C22BC0203852622BD050F5C
:1003D000750802BC0103852922BC0203852322D2B1
:1003E00001BD060C7522007521FF7D008C08913936
:1003F000BC000CBD02097521FF7D008C089139BC41
:10040000030CBD02097521FF7D008C08913922C0C3
:10041000007814758901758C40758A98D28C31EEFC
:1004200031B4308DF9C28CC28DD8EBD00022039F3D
:10043000250D9949411E0109FF91A974A091D1741C
:100440000091D1EC91D1E52E91D1E52D91D1E52C02
:1004500091D1E52991D1E52891D1E52791D1E526E2
:1004600091D1E52391D174AA91D191B32291A9742C
:10047000A091D1740091D191A974A191D1C2079199
:10048000E4FC91E4F52E91E4F52D91E4F52C91E452
:10049000F52991E4F52891E4F52791E4F52691E416
:1004A000F523D20791E491B322D2B7D2B600C2B7F6
:1004B000C2B622C2B7D2B600D2B722D2B7D2B600E5
:1004C000A2B79207C2B622C2B7D2B600C2B6D2B79E
:1004D00022C00078083392B7D2B600C2B6D8F691DF
:1004E000BBD00022C0007808D2B6A2B7C2B633D8BB
:0D04F000F720070491C7800291BBD00022C5
:00000001FF
